:100000008DC00000A6C00000A4C00000A2C0000077
:10001000A0C000009EC000009CC000009AC000006C
:1000200098C0000096C0000094C00000FFC300000C
:1000300090C000008EC000008CC000008AC000008C
:1000400088C0000086C0000084C0000082C000009C
:1000500080C000007EC000007CC000007AC00000AC
:1000600078C0000076C0000074C0000072C00000BC
:1000700070C000002C034C005500460041002000D9
:10008000470065006E006500720069006300200093
:100090004800490044002000440065006D006F00E6
:1000A000000018034400650061006E00200043005A
:1000B00061006D0065007200610000000403090426
:1000C00009022900010100C03209040000020300F6
:1000D0000000092111010001222000070581030809
:1000E00000050705020308000512011001000000C9
:1000F00008EB034F200100010200010600FF090187
:10010000A1010902150025FF750895078102090361
:10011000150025FF750895049102C00011241FBE2B
:10012000CFEFD2E0DEBFCDBF11E0A0E0B1E0ECE761
:10013000FCE002C005900D92A030B107D9F721E094
:10014000A0E0B1E001C01D92AD30B207E1F7ACD044
:1001500093C556CF292F332723303105C9F03CF4FE
:100160002130310559F02230310569F036C0213295
:10017000310549F12232310559F12FC082E190E079
:1001800029EE30E033C089E290E020EC30E02EC070
:1001900099278130910559F08230910571F0892BB2
:1001A00009F5ECEBF0E0849190E09F011FC0E2EADA
:1001B000F0E0849190E09F0119C0E4E7F0E08491C1
:1001C00090E09F0113C089E090E022ED30E00EC086
:1001D00080E290E02BEF30E009C080E090E020E08A
:1001E00030E004C080E090E020E030E0FA013183AC
:1001F0002083089584B7877F84BF0FB6F894A895AD
:1002000080916000886180936000109260000FBE52
:1002100090E080E80FB6F8948093610090936100BD
:100220000FBEF4C20895CF93DF93CDB7DEB7279703
:100230000FB6F894DEBF0FBECDBF809104018430AD
:1002400051F582E08093E9008091E80082FF10C0C0
:100250008091E80085FF07C040E050E064E070E076
:10026000CE01019683D0E8EEF0E080818B77808329
:1002700081E08093E9008091E80080FF0CC040E0BD
:1002800050E067E070E0CE01019613D0E8EEF0E0B8
:1002900080818E77808327960FB6F894DEBF0FBEDD
:1002A000CDBFDF91CF910895A5DF7894BCDFCAD48C
:1002B000FDCF8F929F92AF92BF92CF92DF92EF923B
:1002C000FF920F931F93CF93DF938C01EB015A01A1
:1002D00029D281113EC0A114B10439F0F501808109
:1002E0009181C81BD90B080F191F209789F1E12CA8
:1002F000F12C0F2EF8EE8F2E912CF02D0F2EF1EF0A
:10030000CF2ED12CF02DF401808185FD14C0808189
:100310008E77808397D4A114B10449F0F5018081D0
:100320009181E80EF91EF182E08285E012C0FAD1D7
:10033000882351F00EC0F80181918F01F60180836E
:100340002197FFEFEF1AFF0A2097E9F680E001C03E
:1003500080E0DF91CF911F910F91FF90EF90DF90A0
:10036000CF90BF90AF909F908F9008958F929F9263
:10037000AF92BF92CF92DF92EF92FF920F931F93B3
:10038000CF93DF938C01EB015A01CCD181113EC098
:10039000A114B10439F0F50180819181C81BD90BFA
:1003A000080F191F209789F1E12CF12C0F2EF8EE80
:1003B0008F2E912CF02D0F2EF1EFCF2ED12CF02D72
:1003C000F401808185FD14C080818B7780833AD4CD
:1003D000A114B10449F0F50180819181E80EF91E64
:1003E000F182E08285E012C09DD1882351F00EC0D9
:1003F000F6018081F80181938F012197FFEFEF1AB9
:10040000FF0A2097E9F680E001C080E0DF91CF91FC
:100410001F910F91FF90EF90DF90CF90BF90AF9022
:100420009F908F900895EF92FF921F93CF93DF9349
:1004300020910B0130910C012617370758F06115F8
:10044000710539F4E8EEF0E020812E7720839B01DE
:1004500001C09B01A82FB92F40E0E8EEF0E062EF69
:1004600070E00F2EF1EFEF2EF12CF02D51E010E0A7
:100470002BC0809104018823F1F18530F1F1808156
:1004800083FD3DC0808182FD2FC0808180FF1CC024
:10049000EB01888190E02115310579F088309105D4
:1004A00060F44D91E70148832150310901962115EF
:1004B000310519F088309105A1F7452F089709F00B
:1004C000412F80818E7780832115310591F641116E
:1004D000D0CF0AC080910401882399F0853099F02B
:1004E000808183FF03C011C0E8EEF0E0808182FFCD
:1004F000F1CF80E00BC082E009C083E007C081E05B
:1005000005C082E003C083E001C081E0DF91CF91AC
:100510001F91FF90EF900895EF92FF921F93CF935A
:10052000DF9320910B0130910C012617370758F00B
:100530006115710539F4E8EEF0E020812E77208313
:100540009B0101C09B01E82FF92F60E0A8EEB0E00D
:1005500042EF50E00F2EF1EFEF2EF12CF02D71E075
:1005600010E02EC080910401882309F440C085303A
:1005700009F43FC08C9183FD3EC08C9182FD30C058
:100580008C9180FF1DC0EA01888190E02115310522
:1005900081F08830910568F46491E70168833196B1
:1005A0002150310901962115310519F08830910546
:1005B00099F7672F089709F0612F8C918E778C93AC
:1005C0002115310579F66111CDCF0AC08091040162
:1005D000882399F0853099F0808183FF03C011C092
:1005E000E8EEF0E0808182FFF1CF80E00BC082E096
:1005F00009C083E007C081E005C082E003C083E05A
:1006000001C081E0DF91CF911F91FF90EF9008959D
:100610008F929F92BF92CF92DF92EF92FF920F93B1
:100620001F93CF93DF93853070F126C0292F2F7051
:10063000E7012883891731F0E80178812081E401FE
:10064000588103C0242F762F5B2D21FF12C03C91CF
:100650003E7F3C9330813D7F30833C9131603C93C1
:10066000E80178832083E4015883E601288122236E
:1006700044F49F5F9530D1F68F708093E90081E05C
:1006800021C080E01FC0982F9F709093E900982FA1
:10069000242F762F50E0ABEEB0E0EDEEF0E00CEE64
:1006A00010E00F2EF0EF8F2E912CF02D0F2EFEEE7E
:1006B000CF2ED12CF02D0F2EF9EEEF2EF12CF02DA8
:1006C000B12CC3CFDF91CF911F910F91FF90EF908D
:1006D000DF90CF90BF909F908F90089580910501FB
:1006E000882344F0E8EEF0E014C080910401811109
:1006F00003C00895E8EEF0E0808182FFF6CFE8EED7
:10070000F0E080818B7780830895809104018823B5
:1007100041F0808180FFF9CFE8EEF0E080818E77B4
:10072000808308950F931F93CF93DF932091E4006C
:100730003091E50065E6ACEEB0E0E8EEF0E00BEEFF
:1007400010E044EE50E001C09C019C91892F817023
:1007500090FD1DC020C080910401882381F0853068
:1007600081F0E801888185FD0EC0EA0188819981C8
:100770002817390751F3615039F784E00FC082E040
:100780000DC083E00BC081E009C080E007C080811C
:1007900080FFE1CFFACF908192FFDDCFDF91CF9143
:1007A0001F910F9108953CD03ED0E8EDF0E080819C
:1007B0008F77808380818068808380818F7D808334
:1007C00084E089BD86E089BD09B400FEFDCF1092AA
:1007D000040110920001109202011092010142E006
:1007E00060E080E015DFE1EEF0E080818E7F8083C5
:1007F000E2EEF0E080818160808380818860808388
:10080000E0EEF0E080818E7F80830895E3E6F0E003
:1008100080818E7F808381E080930301C4CF08951F
:100820001092E20008951092E10008951F920F9235
:100830000FB60F9211242F933F934F935F936F93B3
:100840007F938F939F93AF93BF93EF93FF93809189
:10085000E10082FF0AC08091E20082FF06C0E1EE63
:10086000F0E080818B7F8083ECD18091E10080FF7C
:1008700015C08091E20080FF11C0E2EEF0E08081BF
:100880008E7F8083808180618083E8EDF0E08081CD
:100890008062808319BC10920401D3D18091E10061
:1008A00084FF2FC08091E20084FF2BC084E089BDCB
:1008B00086E089BD09B400FEFDCFE8EDF0E080815F
:1008C0008F7D8083E1EEF0E080818F7E8083E2EE99
:1008D000F0E080818F7E8083808181608083809141
:1008E0000001882321F084E08093040109C08091F5
:1008F000E300882314F081E001C083E080930401C9
:10090000A0D18091E10083FF1EC08091E20083FFAF
:100910001AC0E1EEF0E08081877F808382E08093DF
:1009200004011092000180818E7F8083E2EEF0E06E
:1009300080818E7F808380818061808342E060E05F
:1009400080E066DE7ED1FF91EF91BF91AF919F91E4
:100950008F917F916F915F914F913F912F910F9068
:100960000FBE0F901F9018950F931F93CF93DF9397
:10097000CDB7DEB7AA970FB6F894DEBF0FBECDBFD6
:10098000E5E0F1E02DE031E0A1EFB0E08C91819362
:10099000E217F307D9F755D18091E80083FF2CC106
:1009A000E5E0F1E090818181853009F479C030F48F
:1009B0008130B1F168F0833099F11EC1883009F4BB
:1009C000E9C0893009F4F6C0863009F015C18BC042
:1009D000903821F0923809F00FC108C080910101D0
:1009E00090910201992371F082600CC080910901FD
:1009F0008F70E9EEF0E080838091EB0085FB882723
:100A000080F91082E8EEF0E09081977F9083A1EF6B
:100A1000B0E08C931C9280818E7780835FDEECC087
:100A2000992309F4F8C0923009F0E6C0F9C091E0CA
:100A3000833009F090E09093020129C08091090170
:100A40008F7009F4D9C08093E9009091EB0090FF7A
:100A50001EC090910601933031F4EBEEF0E08081FE
:100A60008062808314C0EBEEF0E09081906190830F
:100A700021E030E0A90102C0440F551F8A95E2F73A
:100A8000AAEEB0E04C931C92808188608083109223
:100A9000E900E8EEF0E08081877F80831FDEACC054
:100AA0009111AAC0109107011F77E3EEF0E0808159
:100AB0008078812B8083E8EEF0E08081877F8083DF
:100AC0000DDEE8EEF0E0808180FFFDCFE3EEF0E0A8
:100AD000808180688083111102C082E001C083E0C0
:100AE0008093040189C09058923008F085C08091AD
:100AF0000701909108018C3D53E0950799F583E03B
:100B00008A838AE289835FB7F894DE01139620E036
:100B10003EE041E2E32FF0E040935700849120FF54
:100B200003C082958F703F5F8F708A3018F090E01D
:100B3000C79602C090E0C0968D939D932F5F24319D
:100B400049F75FBF08EE10E0F8018081877F80835E
:100B50006AE270E0CE01019666DCF80180818B7755
:100B600080834AC0AE014F5F5F4F60910901F2DAA6
:100B7000BC01892B09F440C008EE10E0F801908117
:100B8000977F908389819A81C7DCF80180818B7778
:100B9000808332C0903881F5E8EEF0E08081877F75
:100BA0008083809100018093F10080818E77808323
:100BB00095DD22C0911120C0809107018230E0F4C0
:100BC000E8EEF0E08081877F808380910701809349
:100BD000000184DD80910001882321F084E080936E
:100BE000040109C08091E300882314F081E001C072
:100BF00084E08093040125D08091E80083FF16C033
:100C0000E8EEF0E08081877F8083EBEEF0E080818A
:100C1000806280830BC090910701913069F707CF04
:100C200080910701882309F409CF31CFAA960FB626
:100C3000F894DEBF0FBECDBFDF91CF911F910F9112
:100C400008950895CF9380910401882399F0C0916D
:100C5000E900CF708091EC00982F917080FD90E8B2
:100C6000C92B1092E9008091E80083FD7DDECF70F2
:0C0C7000C093E900CF910895F894FFCFE5
:00000001FF
