S01300006D61696E2D6465766963652E73726563CF
S11300005BC08FC074C073C072C071C070C06FC059
S11300106EC06DC06CC06BC06AC069C068C067C088
S113002066C065C064C00600FF0901A10115002671
S1130030FF00750895030900B20201C00403090416
S11300402C03770065002E006500610073007900C1
S113005065006C0065006300740072006F006E0040
S11300606900630073002E007200750018034800D5
S11300706900640020006500780061006D00700074
S11300806C0065001201100100000008C016DF05B5
S1130090000101020001090222000101008032096D
S11300A004000001030000000921010100012216DF
S11300B0000705810308006411241FBECFE5D4E0C6
S11300C0DEBFCDBF10E0A0E6B0E0E2E6F7E002C09C
S11300D005900D92A236B107D9F710E0A2E6B0E080
S11300E001C01D92AE39B107E1F7E7D138C388CF1B
S11300F0A82FB92F80E090E041E050EA609530E00D
S113010009C02D9182279795879510F0842795270C
S1130110305EC8F36F5FA8F30895EADF8D939D9373
S11301200895CF93CFB7CF93C395849BE9F7849B6E
S113013009C0849B07C0849B05C0849B03C0849B27
S113014001C0A3C0DF93C0918100DD27C857DF4FF2
S1130150849B02C0DF91EBCF2F930F931F9300B3C7
S11301602FEF04FB20F94F933F9310B34FEF012778
S113017004FB21F93BE031C04E7F012F10B3216015
S113018028C0102F4D7F2260000000B329C04B7F90
S11301902460012F000010B32BC010B3477F2860E8
S11301A02AC04F7E00B320612CC04F7D10B3206263
S11301B02FC04F7B00B3206432C0422700B3499361
S11301C04FEF0000102714FB20F910B31471C9F18C
S11301D0297F91F2012704FB21F900B3237F89F2DF
S11301E0315058F1102714FB22F910B3277E79F20D
S11301F0012704FB23F92F7C81F200B3102714FBA1
S113020024F92F7971F200C010B3012704FB25F9FA
S11302102F7359F200C000B3102714FB26F92230C3
S113022040F200C010B3012704FB27F9243028F65C
S11302304F77206810B30000F9CF10E41ABF0027ED
S113024019C03B503195C31BD04010E41ABF08813C
S1130250033CF9F00B34E9F020917F001981110F70
S11302601213EDCF4A81441F093641F10D3211F0CA
S1130270013E29F7009386003F914F911F910F9102
S11302802F91DF91CAB7C6FD4FCFCF91CFBFCF918A
S1130290189520918600222379F31091840011236C
S11302A069F534306AF13093840020938000109112
S11302B081003BE0311B3093810022C00091840017
S11302C00130E4F40AE54F7049F43091600034FDE4
S11302D019C000936000C8E6D0E018C030917300E4
S11302E034FD10C000937300C4E7D0E00FC027951D
S11302F0A8F45150A9F4220F0000F9CF4AE503C035
S113030042ED01C0432FC4E1D0E032E011B31461E7
S1130310949A11BB02B320E414E15F93012756E0E1
S113032002BB279520F4515021F4220FF9CF012765
S113033056E000003B5A02BBD0F2279528F45150F6
S113034029F4220F0000F9CF012756E0279502BBBC
S113035020F4515021F4220FF9CF012756E02991BE
S1130360332302BB21F60B7E10918500110FC65179
S1130370D04002BB11F010937F0010E41ABF00615B
S113038011B31B7E402F4B7E5F9100C000C002BBA7
S113039011BB42BB71CFCF93DF93EC015091660048
S11303A0561708F4652F409165004423A9F4B19BC6
S11303B004C081E08093620002C010926200B29B8C
S11303C004C081E08093630002C010926300B39B79
S11303D00AC081E080936400A42FB0E0AE59BF4FFF
S11303E020E030E00AC010926400F6CFFE01E20F74
S11303F0F31F8D9180832F5F3F4F2617B8F3460F6D
S113040040936500561B50936600862FDF91CF9171
S11304100895CF93DF93EC01509166005523B1F119
S1130420561708F4652F40916500A42FB0E0AE592B
S1130430BF4F20E030E007C0FE01E20FF31F8081D0
S11304408D932F5F3F4F2617B8F3460F40936500F7
S1130450561B652F509366005523A9F480916200C2
S1130460882311F0C19A01C0C19880916300882348
S113047011F0C29A01C0C29880916400882311F0DF
S1130480C39A01C0C39880E0662309F481E0DF9138
S1130490CF910895FC0180818076803261F481815E
S11304A0813011F0893039F483E080936600109232
S11304B065008FEF089580E008958EE087BB0ED02D
S11304C08C9A20E048EB5BE003C0CA010197F1F786
S11304D02150D9F78C9878940ED0FECF85B78260DE
S11304E085BF8BB780648BBF8BE4809374008AE5EF
S11304F08093730008951F93CF93DF9360918400DA
S1130500635067FDC2C080918100CCE0D0E0C81B7D
S1130510D109C857DF4F809180008D3209F0A3C004
S1130520683009F0B0C083EC809368008AE580935A
S11305306000109267008881807639F0CE01AADFCE
S1130540282F8F3F09F47EC084C09A8110927100D5
S11305508981882321F41092720022E06CC08530D6
S113056019F49093850066C0863009F04FC08B81E2
S1130570813041F484E890E090938300809382007A
S113058022E140C0823041F486E990E090938300F8
S11305908093820022E236C08330F9F48A81882372
S11305A041F48CE390E0909383008093820024E0F4
S11305B029C0813041F480E490E0909383008093DB
S11305C082002CE21FC08230E1F48CE690E090932C
S11305D083008093820028E115C0813241F488EAC7
S11305E090E0909383008093820029E00BC08232D4
S11305F041F486E290E0909383008093820026E1A8
S113060001C020E080E48093670023C0883021F497
S113061021E087E890E011C0893019F490938700B5
S113062009C08A3011F421E006C08B3019F48BE440
S11306308093740020E081E790E09093830080939E
S1130640820007C0888187FD2E8180E8809367003F
S113065006C08F81882319F48E81821708F0822FB7
S11306608093610010C08091670087FF0CC0CE01A9
S1130670D0DE8F3F21F48EE18093600004C0882394
S113068011F010926100109284008091600084FF48
S113069058C0809161008F3F09F453C0182F8930EE
S11306A008F018E0811B809361008091680098E84D
S11306B0892780936800112391F18091670087FF57
S11306C008C089E690E0612F66DE182F893098F51E
S11306D026C0209182003091830086FF0DC0A9E6D8
S11306E0B0E080E090E0F901E80FF91FE491ED93A8
S11306F001961817C1F708C0912FD901E9E6F0E077
S11307008D9181939150E1F71150812F90E01F5FFB
S11307100196820F931F909383008093820089E651
S113072090E0612FFADC612F6C5F6C3041F08FEF49
S11307308093610004C08FEF809361006EE1609349
S1130740600094E180B3847131F49150D9F7109230
S1130750850010927F00DF91CF911F910895F89446
S1050760FFCFC5
S10507625AFF38
S9030000FC
